{
  "_format": "hh-sol-artifact-1",
  "contractName": "MyTokenMarket",
  "sourceName": "contracts/MyTokenMarket.sol",
  "abi": [
    {
      "inputs": [
        {
          "internalType": "address",
          "name": "_token",
          "type": "address"
        },
        {
          "internalType": "address",
          "name": "_router",
          "type": "address"
        },
        {
          "internalType": "address",
          "name": "_weth",
          "type": "address"
        },
        {
          "internalType": "address",
          "name": "_masterChef",
          "type": "address"
        },
        {
          "internalType": "address",
          "name": "_factory",
          "type": "address"
        }
      ],
      "stateMutability": "nonpayable",
      "type": "constructor"
    },
    {
      "inputs": [
        {
          "internalType": "uint256",
          "name": "tokenAmount",
          "type": "uint256"
        }
      ],
      "name": "addLiquidity",
      "outputs": [],
      "stateMutability": "payable",
      "type": "function"
    },
    {
      "inputs": [],
      "name": "buyToken",
      "outputs": [],
      "stateMutability": "payable",
      "type": "function"
    },
    {
      "inputs": [],
      "name": "factory",
      "outputs": [
        {
          "internalType": "address",
          "name": "",
          "type": "address"
        }
      ],
      "stateMutability": "view",
      "type": "function"
    },
    {
      "inputs": [],
      "name": "masterChef",
      "outputs": [
        {
          "internalType": "address",
          "name": "",
          "type": "address"
        }
      ],
      "stateMutability": "view",
      "type": "function"
    },
    {
      "inputs": [],
      "name": "myToken",
      "outputs": [
        {
          "internalType": "address",
          "name": "",
          "type": "address"
        }
      ],
      "stateMutability": "view",
      "type": "function"
    },
    {
      "inputs": [],
      "name": "router",
      "outputs": [
        {
          "internalType": "address",
          "name": "",
          "type": "address"
        }
      ],
      "stateMutability": "view",
      "type": "function"
    },
    {
      "inputs": [],
      "name": "weth",
      "outputs": [
        {
          "internalType": "address",
          "name": "",
          "type": "address"
        }
      ],
      "stateMutability": "view",
      "type": "function"
    },
    {
      "inputs": [
        {
          "internalType": "uint256",
          "name": "_amount",
          "type": "uint256"
        }
      ],
      "name": "withdraw",
      "outputs": [],
      "stateMutability": "nonpayable",
      "type": "function"
    }
  ],
  "bytecode": "0x60806040523480156200001157600080fd5b506040516200196d3803806200196d83398181016040528101906200003791906200019d565b846000806101000a81548173ffffffffffffffffffffffffffffffffffffffff021916908373ffffffffffffffffffffffffffffffffffffffff16021790555083600160006101000a81548173ffffffffffffffffffffffffffffffffffffffff021916908373ffffffffffffffffffffffffffffffffffffffff16021790555082600260006101000a81548173ffffffffffffffffffffffffffffffffffffffff021916908373ffffffffffffffffffffffffffffffffffffffff16021790555081600360006101000a81548173ffffffffffffffffffffffffffffffffffffffff021916908373ffffffffffffffffffffffffffffffffffffffff16021790555080600460006101000a81548173ffffffffffffffffffffffffffffffffffffffff021916908373ffffffffffffffffffffffffffffffffffffffff16021790555050505050506200026d565b600081519050620001978162000253565b92915050565b600080600080600060a08688031215620001b657600080fd5b6000620001c68882890162000186565b9550506020620001d98882890162000186565b9450506040620001ec8882890162000186565b9350506060620001ff8882890162000186565b9250506080620002128882890162000186565b9150509295509295909350565b60006200022c8262000233565b9050919050565b600073ffffffffffffffffffffffffffffffffffffffff82169050919050565b6200025e816200021f565b81146200026a57600080fd5b50565b6116f0806200027d6000396000f3fe60806040526004361061007b5760003560e01c8063a48217191161004e578063a48217191461011b578063b8fcf93714610125578063c45a015514610150578063f887ea401461017b5761007b565b80632e1a7d4d146100805780633fc8cef3146100a957806351c6590a146100d4578063575a86b2146100f0575b600080fd5b34801561008c57600080fd5b506100a760048036038101906100a29190610eae565b6101a6565b005b3480156100b557600080fd5b506100be610314565b6040516100cb9190611131565b60405180910390f35b6100ee60048036038101906100e99190610eae565b61033a565b005b3480156100fc57600080fd5b506101056104d3565b6040516101129190611131565b60405180910390f35b6101236104f9565b005b34801561013157600080fd5b5061013a61089b565b6040516101479190611131565b60405180910390f35b34801561015c57600080fd5b506101656108bf565b6040516101729190611131565b60405180910390f35b34801561018757600080fd5b506101906108e5565b60405161019d9190611131565b60405180910390f35b600081116101e9576040517f08c379a00000000000000000000000000000000000000000000000000000000081526004016101e09061132d565b60405180910390fd5b600360009054906101000a900473ffffffffffffffffffffffffffffffffffffffff1673ffffffffffffffffffffffffffffffffffffffff1663441a3e706000836040518363ffffffff1660e01b8152600401610247929190611282565b600060405180830381600087803b15801561026157600080fd5b505af1158015610275573d6000803e3d6000fd5b505050506102c4308260008054906101000a900473ffffffffffffffffffffffffffffffffffffffff1673ffffffffffffffffffffffffffffffffffffffff1661090b9092919063ffffffff16565b61031130338360008054906101000a900473ffffffffffffffffffffffffffffffffffffffff1673ffffffffffffffffffffffffffffffffffffffff16610a69909392919063ffffffff16565b50565b600260009054906101000a900473ffffffffffffffffffffffffffffffffffffffff1681565b61038733308360008054906101000a900473ffffffffffffffffffffffffffffffffffffffff1673ffffffffffffffffffffffffffffffffffffffff16610a69909392919063ffffffff16565b6103f4600160009054906101000a900473ffffffffffffffffffffffffffffffffffffffff168260008054906101000a900473ffffffffffffffffffffffffffffffffffffffff1673ffffffffffffffffffffffffffffffffffffffff1661090b9092919063ffffffff16565b600160009054906101000a900473ffffffffffffffffffffffffffffffffffffffff1673ffffffffffffffffffffffffffffffffffffffff1663f305d7193460008054906101000a900473ffffffffffffffffffffffffffffffffffffffff168460008033426040518863ffffffff1660e01b815260040161047b969594939291906111d5565b6060604051808303818588803b15801561049457600080fd5b505af11580156104a8573d6000803e3d6000fd5b50505050506040513d601f19601f820116820180604052508101906104cd9190610f00565b50505050565b600360009054906101000a900473ffffffffffffffffffffffffffffffffffffffff1681565b6000600267ffffffffffffffff81111561053c577f4e487b7100000000000000000000000000000000000000000000000000000000600052604160045260246000fd5b60405190808252806020026020018201604052801561056a5781602001602082028036833780820191505090505b509050600260009054906101000a900473ffffffffffffffffffffffffffffffffffffffff16816000815181106105ca577f4e487b7100000000000000000000000000000000000000000000000000000000600052603260045260246000fd5b602002602001019073ffffffffffffffffffffffffffffffffffffffff16908173ffffffffffffffffffffffffffffffffffffffff168152505060008054906101000a900473ffffffffffffffffffffffffffffffffffffffff168160018151811061065f577f4e487b7100000000000000000000000000000000000000000000000000000000600052603260045260246000fd5b602002602001019073ffffffffffffffffffffffffffffffffffffffff16908173ffffffffffffffffffffffffffffffffffffffff16815250506000600160009054906101000a900473ffffffffffffffffffffffffffffffffffffffff1673ffffffffffffffffffffffffffffffffffffffff16637ff36ab53460008530426040518663ffffffff1660e01b81526004016106fe9493929190611236565b6000604051808303818588803b15801561071757600080fd5b505af115801561072b573d6000803e3d6000fd5b50505050506040513d6000823e3d601f19601f820116820180604052508101906107559190610e44565b90506107c6600360009054906101000a900473ffffffffffffffffffffffffffffffffffffffff1660001960008054906101000a900473ffffffffffffffffffffffffffffffffffffffff1673ffffffffffffffffffffffffffffffffffffffff1661090b9092919063ffffffff16565b600360009054906101000a900473ffffffffffffffffffffffffffffffffffffffff1673ffffffffffffffffffffffffffffffffffffffff1663e2bbb158600083600181518110610840577f4e487b7100000000000000000000000000000000000000000000000000000000600052603260045260246000fd5b60200260200101516040518363ffffffff1660e01b8152600401610865929190611282565b600060405180830381600087803b15801561087f57600080fd5b505af1158015610893573d6000803e3d6000fd5b505050505050565b60008054906101000a900473ffffffffffffffffffffffffffffffffffffffff1681565b600460009054906101000a900473ffffffffffffffffffffffffffffffffffffffff1681565b600160009054906101000a900473ffffffffffffffffffffffffffffffffffffffff1681565b60008114806109a4575060008373ffffffffffffffffffffffffffffffffffffffff1663dd62ed3e30856040518363ffffffff1660e01b815260040161095292919061114c565b60206040518083038186803b15801561096a57600080fd5b505afa15801561097e573d6000803e3d6000fd5b505050506040513d601f19601f820116820180604052508101906109a29190610ed7565b145b6109e3576040517f08c379a00000000000000000000000000000000000000000000000000000000081526004016109da9061134d565b60405180910390fd5b610a648363095ea7b360e01b8484604051602401610a029291906111ac565b604051602081830303815290604052907bffffffffffffffffffffffffffffffffffffffffffffffffffffffff19166020820180517bffffffffffffffffffffffffffffffffffffffffffffffffffffffff8381831617835250505050610af2565b505050565b610aec846323b872dd60e01b858585604051602401610a8a93929190611175565b604051602081830303815290604052907bffffffffffffffffffffffffffffffffffffffffffffffffffffffff19166020820180517bffffffffffffffffffffffffffffffffffffffffffffffffffffffff8381831617835250505050610af2565b50505050565b6000610b54826040518060400160405280602081526020017f5361666545524332303a206c6f772d6c6576656c2063616c6c206661696c65648152508573ffffffffffffffffffffffffffffffffffffffff16610bb99092919063ffffffff16565b9050600081511115610bb45780806020019051810190610b749190610e85565b610bb3576040517f08c379a0000000000000000000000000000000000000000000000000000000008152600401610baa9061130d565b60405180910390fd5b5b505050565b6060610bc88484600085610bd1565b90509392505050565b606082471015610c16576040517f08c379a0000000000000000000000000000000000000000000000000000000008152600401610c0d906112cd565b60405180910390fd5b610c1f85610ce5565b610c5e576040517f08c379a0000000000000000000000000000000000000000000000000000000008152600401610c55906112ed565b60405180910390fd5b6000808673ffffffffffffffffffffffffffffffffffffffff168587604051610c87919061111a565b60006040518083038185875af1925050503d8060008114610cc4576040519150601f19603f3d011682016040523d82523d6000602084013e610cc9565b606091505b5091509150610cd9828286610d08565b92505050949350505050565b6000808273ffffffffffffffffffffffffffffffffffffffff163b119050919050565b60608315610d1857829050610d68565b600083511115610d2b5782518084602001fd5b816040517f08c379a0000000000000000000000000000000000000000000000000000000008152600401610d5f91906112ab565b60405180910390fd5b9392505050565b6000610d82610d7d84611392565b61136d565b90508083825260208201905082856020860282011115610da157600080fd5b60005b85811015610dd15781610db78882610e2f565b845260208401935060208301925050600181019050610da4565b5050509392505050565b600082601f830112610dec57600080fd5b8151610dfc848260208601610d6f565b91505092915050565b600081519050610e148161168c565b92915050565b600081359050610e29816116a3565b92915050565b600081519050610e3e816116a3565b92915050565b600060208284031215610e5657600080fd5b600082015167ffffffffffffffff811115610e7057600080fd5b610e7c84828501610ddb565b91505092915050565b600060208284031215610e9757600080fd5b6000610ea584828501610e05565b91505092915050565b600060208284031215610ec057600080fd5b6000610ece84828501610e1a565b91505092915050565b600060208284031215610ee957600080fd5b6000610ef784828501610e2f565b91505092915050565b600080600060608486031215610f1557600080fd5b6000610f2386828701610e2f565b9350506020610f3486828701610e2f565b9250506040610f4586828701610e2f565b9150509250925092565b6000610f5b8383610f67565b60208301905092915050565b610f7081611429565b82525050565b610f7f81611429565b82525050565b6000610f90826113ce565b610f9a81856113fc565b9350610fa5836113be565b8060005b83811015610fd6578151610fbd8882610f4f565b9750610fc8836113ef565b925050600181019050610fa9565b5085935050505092915050565b6000610fee826113d9565b610ff8818561140d565b9350611008818560208601611483565b80840191505092915050565b61101d81611471565b82525050565b600061102e826113e4565b6110388185611418565b9350611048818560208601611483565b61105181611516565b840191505092915050565b6000611069602683611418565b915061107482611527565b604082019050919050565b600061108c601d83611418565b915061109782611576565b602082019050919050565b60006110af602a83611418565b91506110ba8261159f565b604082019050919050565b60006110d2602e83611418565b91506110dd826115ee565b604082019050919050565b60006110f5603683611418565b91506111008261163d565b604082019050919050565b61111481611467565b82525050565b60006111268284610fe3565b915081905092915050565b60006020820190506111466000830184610f76565b92915050565b60006040820190506111616000830185610f76565b61116e6020830184610f76565b9392505050565b600060608201905061118a6000830186610f76565b6111976020830185610f76565b6111a4604083018461110b565b949350505050565b60006040820190506111c16000830185610f76565b6111ce602083018461110b565b9392505050565b600060c0820190506111ea6000830189610f76565b6111f7602083018861110b565b6112046040830187611014565b6112116060830186611014565b61121e6080830185610f76565b61122b60a083018461110b565b979650505050505050565b600060808201905061124b6000830187611014565b818103602083015261125d8186610f85565b905061126c6040830185610f76565b611279606083018461110b565b95945050505050565b60006040820190506112976000830185611014565b6112a4602083018461110b565b9392505050565b600060208201905081810360008301526112c58184611023565b905092915050565b600060208201905081810360008301526112e68161105c565b9050919050565b600060208201905081810360008301526113068161107f565b9050919050565b60006020820190508181036000830152611326816110a2565b9050919050565b60006020820190508181036000830152611346816110c5565b9050919050565b60006020820190508181036000830152611366816110e8565b9050919050565b6000611377611388565b905061138382826114b6565b919050565b6000604051905090565b600067ffffffffffffffff8211156113ad576113ac6114e7565b5b602082029050602081019050919050565b6000819050602082019050919050565b600081519050919050565b600081519050919050565b600081519050919050565b6000602082019050919050565b600082825260208201905092915050565b600081905092915050565b600082825260208201905092915050565b600061143482611447565b9050919050565b60008115159050919050565b600073ffffffffffffffffffffffffffffffffffffffff82169050919050565b6000819050919050565b600061147c82611467565b9050919050565b60005b838110156114a1578082015181840152602081019050611486565b838111156114b0576000848401525b50505050565b6114bf82611516565b810181811067ffffffffffffffff821117156114de576114dd6114e7565b5b80604052505050565b7f4e487b7100000000000000000000000000000000000000000000000000000000600052604160045260246000fd5b6000601f19601f8301169050919050565b7f416464726573733a20696e73756666696369656e742062616c616e636520666f60008201527f722063616c6c0000000000000000000000000000000000000000000000000000602082015250565b7f416464726573733a2063616c6c20746f206e6f6e2d636f6e7472616374000000600082015250565b7f5361666545524332303a204552433230206f7065726174696f6e20646964206e60008201527f6f74207375636365656400000000000000000000000000000000000000000000602082015250565b7f4d61726b65743a20776974686472617720616d6f756e74206d7573742062652060008201527f67726561746572207468616e2030000000000000000000000000000000000000602082015250565b7f5361666545524332303a20617070726f76652066726f6d206e6f6e2d7a65726f60008201527f20746f206e6f6e2d7a65726f20616c6c6f77616e636500000000000000000000602082015250565b6116958161143b565b81146116a057600080fd5b50565b6116ac81611467565b81146116b757600080fd5b5056fea2646970667358221220df64b25097832f881de04fa1f5041d46792ba7df3dd6ad85d22494a588be1c4a64736f6c63430008040033",
  "linkReferences": {},
  "deployedLinkReferences": {}
}