{
  "_format": "hh-sol-artifact-1",
  "contractName": "Vault",
  "sourceName": "contracts/Vault.sol",
  "abi": [
    {
      "inputs": [
        {
          "internalType": "address",
          "name": "_token",
          "type": "address"
        }
      ],
      "stateMutability": "payable",
      "type": "constructor"
    },
    {
      "stateMutability": "nonpayable",
      "type": "fallback"
    },
    {
      "inputs": [
        {
          "internalType": "address",
          "name": "account",
          "type": "address"
        }
      ],
      "name": "balanceOf",
      "outputs": [
        {
          "internalType": "uint256",
          "name": "",
          "type": "uint256"
        }
      ],
      "stateMutability": "view",
      "type": "function"
    },
    {
      "inputs": [
        {
          "internalType": "uint256",
          "name": "_amount",
          "type": "uint256"
        }
      ],
      "name": "deposite",
      "outputs": [],
      "stateMutability": "nonpayable",
      "type": "function"
    },
    {
      "inputs": [],
      "name": "getValue",
      "outputs": [
        {
          "internalType": "uint256",
          "name": "",
          "type": "uint256"
        }
      ],
      "stateMutability": "view",
      "type": "function"
    },
    {
      "inputs": [],
      "name": "token",
      "outputs": [
        {
          "internalType": "address",
          "name": "",
          "type": "address"
        }
      ],
      "stateMutability": "view",
      "type": "function"
    },
    {
      "inputs": [
        {
          "internalType": "uint256",
          "name": "_amount",
          "type": "uint256"
        }
      ],
      "name": "withdraw",
      "outputs": [],
      "stateMutability": "nonpayable",
      "type": "function"
    },
    {
      "stateMutability": "payable",
      "type": "receive"
    }
  ],
  "bytecode": "0x60a0604052604051610af9380380610af983398181016040528101906100259190610077565b8073ffffffffffffffffffffffffffffffffffffffff1660808173ffffffffffffffffffffffffffffffffffffffff1660601b81525050506100e9565b600081519050610071816100d2565b92915050565b60006020828403121561008957600080fd5b600061009784828501610062565b91505092915050565b60006100ab826100b2565b9050919050565b600073ffffffffffffffffffffffffffffffffffffffff82169050919050565b6100db816100a0565b81146100e657600080fd5b50565b60805160601c6109dd61011c600039600081816101d9015281816102c50152818161041101526105a001526109dd6000f3fe60806040526004361061004e5760003560e01c806320965255146100645780632e1a7d4d1461008f5780633104562b146100b857806370a08231146100e1578063fc0c546a1461011e57610055565b3661005557005b34801561006157600080fd5b50005b34801561007057600080fd5b50610079610149565b6040516100869190610835565b60405180910390f35b34801561009b57600080fd5b506100b660048036038101906100b19190610653565b610151565b005b3480156100c457600080fd5b506100df60048036038101906100da9190610653565b61040a565b005b3480156100ed57600080fd5b5061010860048036038101906101039190610601565b610556565b6040516101159190610835565b60405180910390f35b34801561012a57600080fd5b5061013361059e565b604051610140919061075a565b60405180910390f35b600047905090565b6000339050816000808373ffffffffffffffffffffffffffffffffffffffff1673ffffffffffffffffffffffffffffffffffffffff1681526020019081526020016000205410156101d7576040517f08c379a00000000000000000000000000000000000000000000000000000000081526004016101ce90610815565b60405180910390fd5b7f000000000000000000000000000000000000000000000000000000000000000073ffffffffffffffffffffffffffffffffffffffff1663095ea7b330846040518363ffffffff1660e01b81526004016102329291906107ac565b602060405180830381600087803b15801561024c57600080fd5b505af1158015610260573d6000803e3d6000fd5b505050506040513d601f19601f82011682018060405250810190610284919061062a565b6102c3576040517f08c379a00000000000000000000000000000000000000000000000000000000081526004016102ba906107f5565b60405180910390fd5b7f000000000000000000000000000000000000000000000000000000000000000073ffffffffffffffffffffffffffffffffffffffff166323b872dd3083856040518463ffffffff1660e01b815260040161032093929190610775565b602060405180830381600087803b15801561033a57600080fd5b505af115801561034e573d6000803e3d6000fd5b505050506040513d601f19601f82011682018060405250810190610372919061062a565b6103b1576040517f08c379a00000000000000000000000000000000000000000000000000000000081526004016103a8906107d5565b60405180910390fd5b816000808373ffffffffffffffffffffffffffffffffffffffff1673ffffffffffffffffffffffffffffffffffffffff16815260200190815260200160002060008282546103ff91906108b7565b925050819055505050565b60003390507f000000000000000000000000000000000000000000000000000000000000000073ffffffffffffffffffffffffffffffffffffffff166323b872dd8230856040518463ffffffff1660e01b815260040161046c93929190610775565b602060405180830381600087803b15801561048657600080fd5b505af115801561049a573d6000803e3d6000fd5b505050506040513d601f19601f820116820180604052508101906104be919061062a565b6104fd576040517f08c379a00000000000000000000000000000000000000000000000000000000081526004016104f4906107d5565b60405180910390fd5b816000808373ffffffffffffffffffffffffffffffffffffffff1673ffffffffffffffffffffffffffffffffffffffff168152602001908152602001600020600082825461054b9190610861565b925050819055505050565b60008060008373ffffffffffffffffffffffffffffffffffffffff1673ffffffffffffffffffffffffffffffffffffffff168152602001908152602001600020549050919050565b7f000000000000000000000000000000000000000000000000000000000000000081565b6000813590506105d181610962565b92915050565b6000815190506105e681610979565b92915050565b6000813590506105fb81610990565b92915050565b60006020828403121561061357600080fd5b6000610621848285016105c2565b91505092915050565b60006020828403121561063c57600080fd5b600061064a848285016105d7565b91505092915050565b60006020828403121561066557600080fd5b6000610673848285016105ec565b91505092915050565b610685816108eb565b82525050565b6000610698601183610850565b91507f7472616e736174696f6e206661696c65640000000000000000000000000000006000830152602082019050919050565b60006106d8600e83610850565b91507f617070726f7665206661696c65640000000000000000000000000000000000006000830152602082019050919050565b6000610718601d83610850565b91507f5661756c743a20616d6f756e7420657863656564732062616c616e63650000006000830152602082019050919050565b61075481610929565b82525050565b600060208201905061076f600083018461067c565b92915050565b600060608201905061078a600083018661067c565b610797602083018561067c565b6107a4604083018461074b565b949350505050565b60006040820190506107c1600083018561067c565b6107ce602083018461074b565b9392505050565b600060208201905081810360008301526107ee8161068b565b9050919050565b6000602082019050818103600083015261080e816106cb565b9050919050565b6000602082019050818103600083015261082e8161070b565b9050919050565b600060208201905061084a600083018461074b565b92915050565b600082825260208201905092915050565b600061086c82610929565b915061087783610929565b9250827fffffffffffffffffffffffffffffffffffffffffffffffffffffffffffffffff038211156108ac576108ab610933565b5b828201905092915050565b60006108c282610929565b91506108cd83610929565b9250828210156108e0576108df610933565b5b828203905092915050565b60006108f682610909565b9050919050565b60008115159050919050565b600073ffffffffffffffffffffffffffffffffffffffff82169050919050565b6000819050919050565b7f4e487b7100000000000000000000000000000000000000000000000000000000600052601160045260246000fd5b61096b816108eb565b811461097657600080fd5b50565b610982816108fd565b811461098d57600080fd5b50565b61099981610929565b81146109a457600080fd5b5056fea2646970667358221220f353f6f150416b6a9f83b502e9dd5ab77e5bd64a8a970c3f1f318c0ebf96d16264736f6c63430008000033",
  "linkReferences": {},
  "deployedLinkReferences": {}
}