{
  "_format": "hh-sol-artifact-1",
  "contractName": "MasterChef",
  "sourceName": "contracts/MasterChef.sol",
  "abi": [
    {
      "inputs": [
        {
          "internalType": "contract SushiToken",
          "name": "_sushi",
          "type": "address"
        },
        {
          "internalType": "address",
          "name": "_devaddr",
          "type": "address"
        },
        {
          "internalType": "uint256",
          "name": "_sushiPerBlock",
          "type": "uint256"
        },
        {
          "internalType": "uint256",
          "name": "_startBlock",
          "type": "uint256"
        },
        {
          "internalType": "uint256",
          "name": "_bonusEndBlock",
          "type": "uint256"
        }
      ],
      "stateMutability": "nonpayable",
      "type": "constructor"
    },
    {
      "anonymous": false,
      "inputs": [
        {
          "indexed": true,
          "internalType": "address",
          "name": "user",
          "type": "address"
        },
        {
          "indexed": true,
          "internalType": "uint256",
          "name": "pid",
          "type": "uint256"
        },
        {
          "indexed": false,
          "internalType": "uint256",
          "name": "amount",
          "type": "uint256"
        }
      ],
      "name": "Deposit",
      "type": "event"
    },
    {
      "anonymous": false,
      "inputs": [
        {
          "indexed": true,
          "internalType": "address",
          "name": "user",
          "type": "address"
        },
        {
          "indexed": true,
          "internalType": "uint256",
          "name": "pid",
          "type": "uint256"
        },
        {
          "indexed": false,
          "internalType": "uint256",
          "name": "amount",
          "type": "uint256"
        }
      ],
      "name": "EmergencyWithdraw",
      "type": "event"
    },
    {
      "anonymous": false,
      "inputs": [
        {
          "indexed": true,
          "internalType": "address",
          "name": "previousOwner",
          "type": "address"
        },
        {
          "indexed": true,
          "internalType": "address",
          "name": "newOwner",
          "type": "address"
        }
      ],
      "name": "OwnershipTransferred",
      "type": "event"
    },
    {
      "anonymous": false,
      "inputs": [
        {
          "indexed": true,
          "internalType": "address",
          "name": "user",
          "type": "address"
        },
        {
          "indexed": true,
          "internalType": "uint256",
          "name": "pid",
          "type": "uint256"
        },
        {
          "indexed": false,
          "internalType": "uint256",
          "name": "amount",
          "type": "uint256"
        }
      ],
      "name": "Withdraw",
      "type": "event"
    },
    {
      "inputs": [],
      "name": "BONUS_MULTIPLIER",
      "outputs": [
        {
          "internalType": "uint256",
          "name": "",
          "type": "uint256"
        }
      ],
      "stateMutability": "view",
      "type": "function"
    },
    {
      "inputs": [
        {
          "internalType": "uint256",
          "name": "_allocPoint",
          "type": "uint256"
        },
        {
          "internalType": "contract IERC20",
          "name": "_lpToken",
          "type": "address"
        },
        {
          "internalType": "bool",
          "name": "_withUpdate",
          "type": "bool"
        }
      ],
      "name": "add",
      "outputs": [],
      "stateMutability": "nonpayable",
      "type": "function"
    },
    {
      "inputs": [],
      "name": "bonusEndBlock",
      "outputs": [
        {
          "internalType": "uint256",
          "name": "",
          "type": "uint256"
        }
      ],
      "stateMutability": "view",
      "type": "function"
    },
    {
      "inputs": [
        {
          "internalType": "uint256",
          "name": "_pid",
          "type": "uint256"
        },
        {
          "internalType": "uint256",
          "name": "_amount",
          "type": "uint256"
        }
      ],
      "name": "deposit",
      "outputs": [],
      "stateMutability": "nonpayable",
      "type": "function"
    },
    {
      "inputs": [
        {
          "internalType": "address",
          "name": "_devaddr",
          "type": "address"
        }
      ],
      "name": "dev",
      "outputs": [],
      "stateMutability": "nonpayable",
      "type": "function"
    },
    {
      "inputs": [],
      "name": "devaddr",
      "outputs": [
        {
          "internalType": "address",
          "name": "",
          "type": "address"
        }
      ],
      "stateMutability": "view",
      "type": "function"
    },
    {
      "inputs": [
        {
          "internalType": "uint256",
          "name": "_pid",
          "type": "uint256"
        }
      ],
      "name": "emergencyWithdraw",
      "outputs": [],
      "stateMutability": "nonpayable",
      "type": "function"
    },
    {
      "inputs": [
        {
          "internalType": "uint256",
          "name": "_from",
          "type": "uint256"
        },
        {
          "internalType": "uint256",
          "name": "_to",
          "type": "uint256"
        }
      ],
      "name": "getMultiplier",
      "outputs": [
        {
          "internalType": "uint256",
          "name": "",
          "type": "uint256"
        }
      ],
      "stateMutability": "view",
      "type": "function"
    },
    {
      "inputs": [],
      "name": "massUpdatePools",
      "outputs": [],
      "stateMutability": "nonpayable",
      "type": "function"
    },
    {
      "inputs": [
        {
          "internalType": "uint256",
          "name": "_pid",
          "type": "uint256"
        }
      ],
      "name": "migrate",
      "outputs": [],
      "stateMutability": "nonpayable",
      "type": "function"
    },
    {
      "inputs": [],
      "name": "migrator",
      "outputs": [
        {
          "internalType": "contract IMigratorChef",
          "name": "",
          "type": "address"
        }
      ],
      "stateMutability": "view",
      "type": "function"
    },
    {
      "inputs": [],
      "name": "owner",
      "outputs": [
        {
          "internalType": "address",
          "name": "",
          "type": "address"
        }
      ],
      "stateMutability": "view",
      "type": "function"
    },
    {
      "inputs": [
        {
          "internalType": "uint256",
          "name": "_pid",
          "type": "uint256"
        },
        {
          "internalType": "address",
          "name": "_user",
          "type": "address"
        }
      ],
      "name": "pendingSushi",
      "outputs": [
        {
          "internalType": "uint256",
          "name": "",
          "type": "uint256"
        }
      ],
      "stateMutability": "view",
      "type": "function"
    },
    {
      "inputs": [
        {
          "internalType": "uint256",
          "name": "",
          "type": "uint256"
        }
      ],
      "name": "poolInfo",
      "outputs": [
        {
          "internalType": "contract IERC20",
          "name": "lpToken",
          "type": "address"
        },
        {
          "internalType": "uint256",
          "name": "allocPoint",
          "type": "uint256"
        },
        {
          "internalType": "uint256",
          "name": "lastRewardBlock",
          "type": "uint256"
        },
        {
          "internalType": "uint256",
          "name": "accSushiPerShare",
          "type": "uint256"
        }
      ],
      "stateMutability": "view",
      "type": "function"
    },
    {
      "inputs": [],
      "name": "poolLength",
      "outputs": [
        {
          "internalType": "uint256",
          "name": "",
          "type": "uint256"
        }
      ],
      "stateMutability": "view",
      "type": "function"
    },
    {
      "inputs": [],
      "name": "renounceOwnership",
      "outputs": [],
      "stateMutability": "nonpayable",
      "type": "function"
    },
    {
      "inputs": [
        {
          "internalType": "uint256",
          "name": "_pid",
          "type": "uint256"
        },
        {
          "internalType": "uint256",
          "name": "_allocPoint",
          "type": "uint256"
        },
        {
          "internalType": "bool",
          "name": "_withUpdate",
          "type": "bool"
        }
      ],
      "name": "set",
      "outputs": [],
      "stateMutability": "nonpayable",
      "type": "function"
    },
    {
      "inputs": [
        {
          "internalType": "contract IMigratorChef",
          "name": "_migrator",
          "type": "address"
        }
      ],
      "name": "setMigrator",
      "outputs": [],
      "stateMutability": "nonpayable",
      "type": "function"
    },
    {
      "inputs": [],
      "name": "startBlock",
      "outputs": [
        {
          "internalType": "uint256",
          "name": "",
          "type": "uint256"
        }
      ],
      "stateMutability": "view",
      "type": "function"
    },
    {
      "inputs": [],
      "name": "sushi",
      "outputs": [
        {
          "internalType": "contract SushiToken",
          "name": "",
          "type": "address"
        }
      ],
      "stateMutability": "view",
      "type": "function"
    },
    {
      "inputs": [],
      "name": "sushiPerBlock",
      "outputs": [
        {
          "internalType": "uint256",
          "name": "",
          "type": "uint256"
        }
      ],
      "stateMutability": "view",
      "type": "function"
    },
    {
      "inputs": [],
      "name": "totalAllocPoint",
      "outputs": [
        {
          "internalType": "uint256",
          "name": "",
          "type": "uint256"
        }
      ],
      "stateMutability": "view",
      "type": "function"
    },
    {
      "inputs": [
        {
          "internalType": "address",
          "name": "newOwner",
          "type": "address"
        }
      ],
      "name": "transferOwnership",
      "outputs": [],
      "stateMutability": "nonpayable",
      "type": "function"
    },
    {
      "inputs": [
        {
          "internalType": "uint256",
          "name": "_pid",
          "type": "uint256"
        }
      ],
      "name": "updatePool",
      "outputs": [],
      "stateMutability": "nonpayable",
      "type": "function"
    },
    {
      "inputs": [
        {
          "internalType": "uint256",
          "name": "",
          "type": "uint256"
        },
        {
          "internalType": "address",
          "name": "",
          "type": "address"
        }
      ],
      "name": "userInfo",
      "outputs": [
        {
          "internalType": "uint256",
          "name": "amount",
          "type": "uint256"
        },
        {
          "internalType": "uint256",
          "name": "rewardDebt",
          "type": "uint256"
        }
      ],
      "stateMutability": "view",
      "type": "function"
    },
    {
      "inputs": [
        {
          "internalType": "uint256",
          "name": "_pid",
          "type": "uint256"
        },
        {
          "internalType": "uint256",
          "name": "_amount",
          "type": "uint256"
        }
      ],
      "name": "withdraw",
      "outputs": [],
      "stateMutability": "nonpayable",
      "type": "function"
    }
  ],
  "bytecode": "0x608060405260006008553480156200001657600080fd5b50604051620035113803806200351183398181016040528101906200003c91906200020f565b6200005c62000050620000fe60201b60201c565b6200010660201b60201c565b84600160006101000a81548173ffffffffffffffffffffffffffffffffffffffff021916908373ffffffffffffffffffffffffffffffffffffffff16021790555083600260006101000a81548173ffffffffffffffffffffffffffffffffffffffff021916908373ffffffffffffffffffffffffffffffffffffffff160217905550826004819055508060038190555081600981905550505050505062000331565b600033905090565b60008060009054906101000a900473ffffffffffffffffffffffffffffffffffffffff169050816000806101000a81548173ffffffffffffffffffffffffffffffffffffffff021916908373ffffffffffffffffffffffffffffffffffffffff1602179055508173ffffffffffffffffffffffffffffffffffffffff168173ffffffffffffffffffffffffffffffffffffffff167f8be0079c531659141344cd1fd0a4f28419497f9722a3daafe3b4186f6b6457e060405160405180910390a35050565b600081519050620001db81620002e3565b92915050565b600081519050620001f281620002fd565b92915050565b600081519050620002098162000317565b92915050565b600080600080600060a086880312156200022857600080fd5b60006200023888828901620001e1565b95505060206200024b88828901620001ca565b94505060406200025e88828901620001f8565b93505060606200027188828901620001f8565b92505060806200028488828901620001f8565b9150509295509295909350565b60006200029e82620002b9565b9050919050565b6000620002b28262000291565b9050919050565b600073ffffffffffffffffffffffffffffffffffffffff82169050919050565b6000819050919050565b620002ee8162000291565b8114620002fa57600080fd5b50565b6200030881620002a5565b81146200031457600080fd5b50565b6200032281620002d9565b81146200032e57600080fd5b50565b6131d080620003416000396000f3fe608060405234801561001057600080fd5b506004361061018e5760003560e01c8063630b5ba1116100de5780638da5cb5b11610097578063b0bcf42a11610071578063b0bcf42a1461043b578063d49e77cd14610459578063e2bbb15814610477578063f2fde38b146104935761018e565b80638da5cb5b146103bc5780638dbb1e3a146103da57806393f1a40b1461040a5761018e565b8063630b5ba11461033457806364482f791461033e578063715018a61461035a5780637cd07e47146103645780638aa28550146103825780638d88a90e146103a05761018e565b80631eaaa0451161014b578063454b060811610125578063454b0608146102c257806348cd4cb1146102de57806351eb05a6146102fc5780635312ea8e146103185761018e565b80631eaaa0451461026e57806323cf31181461028a578063441a3e70146102a65761018e565b8063081e3eda146101935780630a087903146101b15780631526fe27146101cf57806317caf6f114610202578063195426ec146102205780631aed655314610250575b600080fd5b61019b6104af565b6040516101a89190612ba7565b60405180910390f35b6101b96104bc565b6040516101c69190612a2a565b60405180910390f35b6101e960048036038101906101e49190612579565b6104e2565b6040516101f994939291906129ca565b60405180910390f35b61020a610542565b6040516102179190612ba7565b60405180910390f35b61023a600480360381019061023591906125cb565b610548565b6040516102479190612ba7565b60405180910390f35b6102586107a2565b6040516102659190612ba7565b60405180910390f35b61028860048036038101906102839190612607565b6107a8565b005b6102a4600480360381019061029f9190612550565b610935565b005b6102c060048036038101906102bb9190612656565b6109f5565b005b6102dc60048036038101906102d79190612579565b610c39565b005b6102e6610fdf565b6040516102f39190612ba7565b60405180910390f35b61031660048036038101906103119190612579565b610fe5565b005b610332600480360381019061032d9190612579565b61134f565b005b61033c6114ae565b005b61035860048036038101906103539190612692565b6114e1565b005b610362611639565b005b61036c6116c1565b6040516103799190612a0f565b60405180910390f35b61038a6116e7565b6040516103979190612ba7565b60405180910390f35b6103ba60048036038101906103b591906124d5565b6116ec565b005b6103c46117c0565b6040516103d1919061290b565b60405180910390f35b6103f460048036038101906103ef9190612656565b6117e9565b6040516104019190612ba7565b60405180910390f35b610424600480360381019061041f91906125cb565b61189b565b604051610432929190612bc2565b60405180910390f35b6104436118cc565b6040516104509190612ba7565b60405180910390f35b6104616118d2565b60405161046e919061290b565b60405180910390f35b610491600480360381019061048c9190612656565b6118f8565b005b6104ad60048036038101906104a891906124d5565b611b05565b005b6000600680549050905090565b600160009054906101000a900473ffffffffffffffffffffffffffffffffffffffff1681565b600681815481106104f257600080fd5b90600052602060002090600402016000915090508060000160009054906101000a900473ffffffffffffffffffffffffffffffffffffffff16908060010154908060020154908060030154905084565b60085481565b60008060068481548110610585577f4e487b7100000000000000000000000000000000000000000000000000000000600052603260045260246000fd5b9060005260206000209060040201905060006007600086815260200190815260200160002060008573ffffffffffffffffffffffffffffffffffffffff1673ffffffffffffffffffffffffffffffffffffffff168152602001908152602001600020905060008260030154905060008360000160009054906101000a900473ffffffffffffffffffffffffffffffffffffffff1673ffffffffffffffffffffffffffffffffffffffff166370a08231306040518263ffffffff1660e01b8152600401610651919061290b565b60206040518083038186803b15801561066957600080fd5b505afa15801561067d573d6000803e3d6000fd5b505050506040513d601f19601f820116820180604052508101906106a191906125a2565b90508360020154431180156106b7575060008114155b156107525760006106cc8560020154436117e9565b9050600061070f60085461070188600101546106f360045487611bfd90919063ffffffff16565b611bfd90919063ffffffff16565b611c1390919063ffffffff16565b905061074d61073e8461073064e8d4a5100085611bfd90919063ffffffff16565b611c1390919063ffffffff16565b85611c2990919063ffffffff16565b935050505b610796836001015461078864e8d4a5100061077a868860000154611bfd90919063ffffffff16565b611c1390919063ffffffff16565b611c3f90919063ffffffff16565b94505050505092915050565b60035481565b6107b0611c55565b73ffffffffffffffffffffffffffffffffffffffff166107ce6117c0565b73ffffffffffffffffffffffffffffffffffffffff1614610824576040517f08c379a000000000000000000000000000000000000000000000000000000000815260040161081b90612ac7565b60405180910390fd5b8015610833576108326114ae565b5b6000600954431161084657600954610848565b435b905061085f84600854611c2990919063ffffffff16565b600881905550600660405180608001604052808573ffffffffffffffffffffffffffffffffffffffff1681526020018681526020018381526020016000815250908060018154018082558091505060019003906000526020600020906004020160009091909190915060008201518160000160006101000a81548173ffffffffffffffffffffffffffffffffffffffff021916908373ffffffffffffffffffffffffffffffffffffffff160217905550602082015181600101556040820151816002015560608201518160030155505050505050565b61093d611c55565b73ffffffffffffffffffffffffffffffffffffffff1661095b6117c0565b73ffffffffffffffffffffffffffffffffffffffff16146109b1576040517f08c379a00000000000000000000000000000000000000000000000000000000081526004016109a890612ac7565b60405180910390fd5b80600560006101000a81548173ffffffffffffffffffffffffffffffffffffffff021916908373ffffffffffffffffffffffffffffffffffffffff16021790555050565b600060068381548110610a31577f4e487b7100000000000000000000000000000000000000000000000000000000600052603260045260246000fd5b9060005260206000209060040201905060006007600085815260200190815260200160002060003373ffffffffffffffffffffffffffffffffffffffff1673ffffffffffffffffffffffffffffffffffffffff16815260200190815260200160002090508281600001541015610adc576040517f08c379a0000000000000000000000000000000000000000000000000000000008152600401610ad390612b07565b60405180910390fd5b610ae584610fe5565b6000610b2f8260010154610b2164e8d4a51000610b1387600301548760000154611bfd90919063ffffffff16565b611c1390919063ffffffff16565b611c3f90919063ffffffff16565b9050610b3b3382611c5d565b610b52848360000154611c3f90919063ffffffff16565b8260000181905550610b8c64e8d4a51000610b7e85600301548560000154611bfd90919063ffffffff16565b611c1390919063ffffffff16565b8260010181905550610be333858560000160009054906101000a900473ffffffffffffffffffffffffffffffffffffffff1673ffffffffffffffffffffffffffffffffffffffff16611e7f9092919063ffffffff16565b843373ffffffffffffffffffffffffffffffffffffffff167ff279e6a1f5e320cca91135676d9cb6e44ca8a08c0b88342bcdb1144f6511b56886604051610c2a9190612ba7565b60405180910390a35050505050565b600073ffffffffffffffffffffffffffffffffffffffff16600560009054906101000a900473ffffffffffffffffffffffffffffffffffffffff1673ffffffffffffffffffffffffffffffffffffffff161415610ccb576040517f08c379a0000000000000000000000000000000000000000000000000000000008152600401610cc290612b87565b60405180910390fd5b600060068281548110610d07577f4e487b7100000000000000000000000000000000000000000000000000000000600052603260045260246000fd5b9060005260206000209060040201905060008160000160009054906101000a900473ffffffffffffffffffffffffffffffffffffffff16905060008173ffffffffffffffffffffffffffffffffffffffff166370a08231306040518263ffffffff1660e01b8152600401610d7b919061290b565b60206040518083038186803b158015610d9357600080fd5b505afa158015610da7573d6000803e3d6000fd5b505050506040513d601f19601f82011682018060405250810190610dcb91906125a2565b9050610e1a600560009054906101000a900473ffffffffffffffffffffffffffffffffffffffff16828473ffffffffffffffffffffffffffffffffffffffff16611f059092919063ffffffff16565b6000600560009054906101000a900473ffffffffffffffffffffffffffffffffffffffff1673ffffffffffffffffffffffffffffffffffffffff1663ce5494bb846040518263ffffffff1660e01b8152600401610e7791906129af565b602060405180830381600087803b158015610e9157600080fd5b505af1158015610ea5573d6000803e3d6000fd5b505050506040513d601f19601f82011682018060405250810190610ec99190612527565b90508073ffffffffffffffffffffffffffffffffffffffff166370a08231306040518263ffffffff1660e01b8152600401610f04919061290b565b60206040518083038186803b158015610f1c57600080fd5b505afa158015610f30573d6000803e3d6000fd5b505050506040513d601f19601f82011682018060405250810190610f5491906125a2565b8214610f95576040517f08c379a0000000000000000000000000000000000000000000000000000000008152600401610f8c90612b47565b60405180910390fd5b808460000160006101000a81548173ffffffffffffffffffffffffffffffffffffffff021916908373ffffffffffffffffffffffffffffffffffffffff1602179055505050505050565b60095481565b600060068281548110611021577f4e487b7100000000000000000000000000000000000000000000000000000000600052603260045260246000fd5b9060005260206000209060040201905080600201544311611042575061134c565b60008160000160009054906101000a900473ffffffffffffffffffffffffffffffffffffffff1673ffffffffffffffffffffffffffffffffffffffff166370a08231306040518263ffffffff1660e01b81526004016110a1919061290b565b60206040518083038186803b1580156110b957600080fd5b505afa1580156110cd573d6000803e3d6000fd5b505050506040513d601f19601f820116820180604052508101906110f191906125a2565b9050600081141561110c57438260020181905550505061134c565b600061111c8360020154436117e9565b9050600061115f600854611151866001015461114360045487611bfd90919063ffffffff16565b611bfd90919063ffffffff16565b611c1390919063ffffffff16565b9050600160009054906101000a900473ffffffffffffffffffffffffffffffffffffffff1673ffffffffffffffffffffffffffffffffffffffff166340c10f19600260009054906101000a900473ffffffffffffffffffffffffffffffffffffffff166111d6600a85611c1390919063ffffffff16565b6040518363ffffffff1660e01b81526004016111f3929190612986565b602060405180830381600087803b15801561120d57600080fd5b505af1158015611221573d6000803e3d6000fd5b505050506040513d601f19601f8201168201806040525081019061124591906124fe565b50600160009054906101000a900473ffffffffffffffffffffffffffffffffffffffff1673ffffffffffffffffffffffffffffffffffffffff166340c10f1930836040518363ffffffff1660e01b81526004016112a3929190612986565b602060405180830381600087803b1580156112bd57600080fd5b505af11580156112d1573d6000803e3d6000fd5b505050506040513d601f19601f820116820180604052508101906112f591906124fe565b506113366113238461131564e8d4a5100085611bfd90919063ffffffff16565b611c1390919063ffffffff16565b8560030154611c2990919063ffffffff16565b8460030181905550438460020181905550505050505b50565b60006006828154811061138b577f4e487b7100000000000000000000000000000000000000000000000000000000600052603260045260246000fd5b9060005260206000209060040201905060006007600084815260200190815260200160002060003373ffffffffffffffffffffffffffffffffffffffff1673ffffffffffffffffffffffffffffffffffffffff16815260200190815260200160002090506114423382600001548460000160009054906101000a900473ffffffffffffffffffffffffffffffffffffffff1673ffffffffffffffffffffffffffffffffffffffff16611e7f9092919063ffffffff16565b823373ffffffffffffffffffffffffffffffffffffffff167fbb757047c2b5f3974fe26b7c10f732e7bce710b0952a71082702781e62ae0595836000015460405161148d9190612ba7565b60405180910390a36000816000018190555060008160010181905550505050565b6000600680549050905060005b818110156114dd576114cc81610fe5565b806114d690612e3d565b90506114bb565b5050565b6114e9611c55565b73ffffffffffffffffffffffffffffffffffffffff166115076117c0565b73ffffffffffffffffffffffffffffffffffffffff161461155d576040517f08c379a000000000000000000000000000000000000000000000000000000000815260040161155490612ac7565b60405180910390fd5b801561156c5761156b6114ae565b5b6115de826115d0600686815481106115ad577f4e487b7100000000000000000000000000000000000000000000000000000000600052603260045260246000fd5b906000526020600020906004020160010154600854611c3f90919063ffffffff16565b611c2990919063ffffffff16565b600881905550816006848154811061161f577f4e487b7100000000000000000000000000000000000000000000000000000000600052603260045260246000fd5b906000526020600020906004020160010181905550505050565b611641611c55565b73ffffffffffffffffffffffffffffffffffffffff1661165f6117c0565b73ffffffffffffffffffffffffffffffffffffffff16146116b5576040517f08c379a00000000000000000000000000000000000000000000000000000000081526004016116ac90612ac7565b60405180910390fd5b6116bf6000612063565b565b600560009054906101000a900473ffffffffffffffffffffffffffffffffffffffff1681565b600a81565b600260009054906101000a900473ffffffffffffffffffffffffffffffffffffffff1673ffffffffffffffffffffffffffffffffffffffff163373ffffffffffffffffffffffffffffffffffffffff161461177c576040517f08c379a000000000000000000000000000000000000000000000000000000000815260040161177390612aa7565b60405180910390fd5b80600260006101000a81548173ffffffffffffffffffffffffffffffffffffffff021916908373ffffffffffffffffffffffffffffffffffffffff16021790555050565b60008060009054906101000a900473ffffffffffffffffffffffffffffffffffffffff16905090565b600060035482116118215761181a600a61180c8585611c3f90919063ffffffff16565b611bfd90919063ffffffff16565b9050611895565b60035483106118445761183d8383611c3f90919063ffffffff16565b9050611895565b61189261185c60035484611c3f90919063ffffffff16565b611884600a61187687600354611c3f90919063ffffffff16565b611bfd90919063ffffffff16565b611c2990919063ffffffff16565b90505b92915050565b6007602052816000526040600020602052806000526040600020600091509150508060000154908060010154905082565b60045481565b600260009054906101000a900473ffffffffffffffffffffffffffffffffffffffff1681565b600060068381548110611934577f4e487b7100000000000000000000000000000000000000000000000000000000600052603260045260246000fd5b9060005260206000209060040201905060006007600085815260200190815260200160002060003373ffffffffffffffffffffffffffffffffffffffff1673ffffffffffffffffffffffffffffffffffffffff16815260200190815260200160002090506119a184610fe5565b600081600001541115611a065760006119f882600101546119ea64e8d4a510006119dc87600301548760000154611bfd90919063ffffffff16565b611c1390919063ffffffff16565b611c3f90919063ffffffff16565b9050611a043382611c5d565b505b611a573330858560000160009054906101000a900473ffffffffffffffffffffffffffffffffffffffff1673ffffffffffffffffffffffffffffffffffffffff16612127909392919063ffffffff16565b611a6e838260000154611c2990919063ffffffff16565b8160000181905550611aa864e8d4a51000611a9a84600301548460000154611bfd90919063ffffffff16565b611c1390919063ffffffff16565b8160010181905550833373ffffffffffffffffffffffffffffffffffffffff167f90890809c654f11d6e72a28fa60149770a0d11ec6c92319d6ceb2bb0a4ea1a1585604051611af79190612ba7565b60405180910390a350505050565b611b0d611c55565b73ffffffffffffffffffffffffffffffffffffffff16611b2b6117c0565b73ffffffffffffffffffffffffffffffffffffffff1614611b81576040517f08c379a0000000000000000000000000000000000000000000000000000000008152600401611b7890612ac7565b60405180910390fd5b600073ffffffffffffffffffffffffffffffffffffffff168173ffffffffffffffffffffffffffffffffffffffff161415611bf1576040517f08c379a0000000000000000000000000000000000000000000000000000000008152600401611be890612a67565b60405180910390fd5b611bfa81612063565b50565b60008183611c0b9190612ca4565b905092915050565b60008183611c219190612c73565b905092915050565b60008183611c379190612c1d565b905092915050565b60008183611c4d9190612cfe565b905092915050565b600033905090565b6000600160009054906101000a900473ffffffffffffffffffffffffffffffffffffffff1673ffffffffffffffffffffffffffffffffffffffff166370a08231306040518263ffffffff1660e01b8152600401611cba919061290b565b60206040518083038186803b158015611cd257600080fd5b505afa158015611ce6573d6000803e3d6000fd5b505050506040513d601f19601f82011682018060405250810190611d0a91906125a2565b905080821115611dc957600160009054906101000a900473ffffffffffffffffffffffffffffffffffffffff1673ffffffffffffffffffffffffffffffffffffffff1663a9059cbb84836040518363ffffffff1660e01b8152600401611d71929190612986565b602060405180830381600087803b158015611d8b57600080fd5b505af1158015611d9f573d6000803e3d6000fd5b505050506040513d601f19601f82011682018060405250810190611dc391906124fe565b50611e7a565b600160009054906101000a900473ffffffffffffffffffffffffffffffffffffffff1673ffffffffffffffffffffffffffffffffffffffff1663a9059cbb84846040518363ffffffff1660e01b8152600401611e26929190612986565b602060405180830381600087803b158015611e4057600080fd5b505af1158015611e54573d6000803e3d6000fd5b505050506040513d601f19601f82011682018060405250810190611e7891906124fe565b505b505050565b611f008363a9059cbb60e01b8484604051602401611e9e929190612986565b604051602081830303815290604052907bffffffffffffffffffffffffffffffffffffffffffffffffffffffff19166020820180517bffffffffffffffffffffffffffffffffffffffffffffffffffffffff83818316178352505050506121b0565b505050565b6000811480611f9e575060008373ffffffffffffffffffffffffffffffffffffffff1663dd62ed3e30856040518363ffffffff1660e01b8152600401611f4c929190612926565b60206040518083038186803b158015611f6457600080fd5b505afa158015611f78573d6000803e3d6000fd5b505050506040513d601f19601f82011682018060405250810190611f9c91906125a2565b145b611fdd576040517f08c379a0000000000000000000000000000000000000000000000000000000008152600401611fd490612b67565b60405180910390fd5b61205e8363095ea7b360e01b8484604051602401611ffc929190612986565b604051602081830303815290604052907bffffffffffffffffffffffffffffffffffffffffffffffffffffffff19166020820180517bffffffffffffffffffffffffffffffffffffffffffffffffffffffff83818316178352505050506121b0565b505050565b60008060009054906101000a900473ffffffffffffffffffffffffffffffffffffffff169050816000806101000a81548173ffffffffffffffffffffffffffffffffffffffff021916908373ffffffffffffffffffffffffffffffffffffffff1602179055508173ffffffffffffffffffffffffffffffffffffffff168173ffffffffffffffffffffffffffffffffffffffff167f8be0079c531659141344cd1fd0a4f28419497f9722a3daafe3b4186f6b6457e060405160405180910390a35050565b6121aa846323b872dd60e01b8585856040516024016121489392919061294f565b604051602081830303815290604052907bffffffffffffffffffffffffffffffffffffffffffffffffffffffff19166020820180517bffffffffffffffffffffffffffffffffffffffffffffffffffffffff83818316178352505050506121b0565b50505050565b6000612212826040518060400160405280602081526020017f5361666545524332303a206c6f772d6c6576656c2063616c6c206661696c65648152508573ffffffffffffffffffffffffffffffffffffffff166122779092919063ffffffff16565b9050600081511115612272578080602001905181019061223291906124fe565b612271576040517f08c379a000000000000000000000000000000000000000000000000000000000815260040161226890612b27565b60405180910390fd5b5b505050565b6060612286848460008561228f565b90509392505050565b6060824710156122d4576040517f08c379a00000000000000000000000000000000000000000000000000000000081526004016122cb90612a87565b60405180910390fd5b6122dd856123a3565b61231c576040517f08c379a000000000000000000000000000000000000000000000000000000000815260040161231390612ae7565b60405180910390fd5b6000808673ffffffffffffffffffffffffffffffffffffffff16858760405161234591906128f4565b60006040518083038185875af1925050503d8060008114612382576040519150601f19603f3d011682016040523d82523d6000602084013e612387565b606091505b50915091506123978282866123c6565b92505050949350505050565b6000808273ffffffffffffffffffffffffffffffffffffffff163b119050919050565b606083156123d657829050612426565b6000835111156123e95782518084602001fd5b816040517f08c379a000000000000000000000000000000000000000000000000000000000815260040161241d9190612a45565b60405180910390fd5b9392505050565b60008135905061243c81613127565b92915050565b6000813590506124518161313e565b92915050565b6000815190506124668161313e565b92915050565b60008135905061247b81613155565b92915050565b60008151905061249081613155565b92915050565b6000813590506124a58161316c565b92915050565b6000813590506124ba81613183565b92915050565b6000815190506124cf81613183565b92915050565b6000602082840312156124e757600080fd5b60006124f58482850161242d565b91505092915050565b60006020828403121561251057600080fd5b600061251e84828501612457565b91505092915050565b60006020828403121561253957600080fd5b600061254784828501612481565b91505092915050565b60006020828403121561256257600080fd5b600061257084828501612496565b91505092915050565b60006020828403121561258b57600080fd5b6000612599848285016124ab565b91505092915050565b6000602082840312156125b457600080fd5b60006125c2848285016124c0565b91505092915050565b600080604083850312156125de57600080fd5b60006125ec858286016124ab565b92505060206125fd8582860161242d565b9150509250929050565b60008060006060848603121561261c57600080fd5b600061262a868287016124ab565b935050602061263b8682870161246c565b925050604061264c86828701612442565b9150509250925092565b6000806040838503121561266957600080fd5b6000612677858286016124ab565b9250506020612688858286016124ab565b9150509250929050565b6000806000606084860312156126a757600080fd5b60006126b5868287016124ab565b93505060206126c6868287016124ab565b92505060406126d786828701612442565b9150509250925092565b6126ea81612d32565b82525050565b60006126fb82612beb565b6127058185612c01565b9350612715818560208601612e0a565b80840191505092915050565b61272a81612d9e565b82525050565b61273981612dc2565b82525050565b61274881612de6565b82525050565b600061275982612bf6565b6127638185612c0c565b9350612773818560208601612e0a565b61277c81612ee4565b840191505092915050565b6000612794602683612c0c565b915061279f82612ef5565b604082019050919050565b60006127b7602683612c0c565b91506127c282612f44565b604082019050919050565b60006127da600983612c0c565b91506127e582612f93565b602082019050919050565b60006127fd602083612c0c565b915061280882612fbc565b602082019050919050565b6000612820601d83612c0c565b915061282b82612fe5565b602082019050919050565b6000612843601283612c0c565b915061284e8261300e565b602082019050919050565b6000612866602a83612c0c565b915061287182613037565b604082019050919050565b6000612889600c83612c0c565b915061289482613086565b602082019050919050565b60006128ac603683612c0c565b91506128b7826130af565b604082019050919050565b60006128cf601483612c0c565b91506128da826130fe565b602082019050919050565b6128ee81612d94565b82525050565b600061290082846126f0565b915081905092915050565b600060208201905061292060008301846126e1565b92915050565b600060408201905061293b60008301856126e1565b61294860208301846126e1565b9392505050565b600060608201905061296460008301866126e1565b61297160208301856126e1565b61297e60408301846128e5565b949350505050565b600060408201905061299b60008301856126e1565b6129a860208301846128e5565b9392505050565b60006020820190506129c46000830184612721565b92915050565b60006080820190506129df6000830187612721565b6129ec60208301866128e5565b6129f960408301856128e5565b612a0660608301846128e5565b95945050505050565b6000602082019050612a246000830184612730565b92915050565b6000602082019050612a3f600083018461273f565b92915050565b60006020820190508181036000830152612a5f818461274e565b905092915050565b60006020820190508181036000830152612a8081612787565b9050919050565b60006020820190508181036000830152612aa0816127aa565b9050919050565b60006020820190508181036000830152612ac0816127cd565b9050919050565b60006020820190508181036000830152612ae0816127f0565b9050919050565b60006020820190508181036000830152612b0081612813565b9050919050565b60006020820190508181036000830152612b2081612836565b9050919050565b60006020820190508181036000830152612b4081612859565b9050919050565b60006020820190508181036000830152612b608161287c565b9050919050565b60006020820190508181036000830152612b808161289f565b9050919050565b60006020820190508181036000830152612ba0816128c2565b9050919050565b6000602082019050612bbc60008301846128e5565b92915050565b6000604082019050612bd760008301856128e5565b612be460208301846128e5565b9392505050565b600081519050919050565b600081519050919050565b600081905092915050565b600082825260208201905092915050565b6000612c2882612d94565b9150612c3383612d94565b9250827fffffffffffffffffffffffffffffffffffffffffffffffffffffffffffffffff03821115612c6857612c67612e86565b5b828201905092915050565b6000612c7e82612d94565b9150612c8983612d94565b925082612c9957612c98612eb5565b5b828204905092915050565b6000612caf82612d94565b9150612cba83612d94565b9250817fffffffffffffffffffffffffffffffffffffffffffffffffffffffffffffffff0483118215151615612cf357612cf2612e86565b5b828202905092915050565b6000612d0982612d94565b9150612d1483612d94565b925082821015612d2757612d26612e86565b5b828203905092915050565b6000612d3d82612d74565b9050919050565b60008115159050919050565b6000612d5b82612d32565b9050919050565b6000612d6d82612d32565b9050919050565b600073ffffffffffffffffffffffffffffffffffffffff82169050919050565b6000819050919050565b6000612da982612db0565b9050919050565b6000612dbb82612d74565b9050919050565b6000612dcd82612dd4565b9050919050565b6000612ddf82612d74565b9050919050565b6000612df182612df8565b9050919050565b6000612e0382612d74565b9050919050565b60005b83811015612e28578082015181840152602081019050612e0d565b83811115612e37576000848401525b50505050565b6000612e4882612d94565b91507fffffffffffffffffffffffffffffffffffffffffffffffffffffffffffffffff821415612e7b57612e7a612e86565b5b600182019050919050565b7f4e487b7100000000000000000000000000000000000000000000000000000000600052601160045260246000fd5b7f4e487b7100000000000000000000000000000000000000000000000000000000600052601260045260246000fd5b6000601f19601f8301169050919050565b7f4f776e61626c653a206e6577206f776e657220697320746865207a65726f206160008201527f6464726573730000000000000000000000000000000000000000000000000000602082015250565b7f416464726573733a20696e73756666696369656e742062616c616e636520666f60008201527f722063616c6c0000000000000000000000000000000000000000000000000000602082015250565b7f6465763a207775743f0000000000000000000000000000000000000000000000600082015250565b7f4f776e61626c653a2063616c6c6572206973206e6f7420746865206f776e6572600082015250565b7f416464726573733a2063616c6c20746f206e6f6e2d636f6e7472616374000000600082015250565b7f77697468647261773a206e6f7420676f6f640000000000000000000000000000600082015250565b7f5361666545524332303a204552433230206f7065726174696f6e20646964206e60008201527f6f74207375636365656400000000000000000000000000000000000000000000602082015250565b7f6d6967726174653a206261640000000000000000000000000000000000000000600082015250565b7f5361666545524332303a20617070726f76652066726f6d206e6f6e2d7a65726f60008201527f20746f206e6f6e2d7a65726f20616c6c6f77616e636500000000000000000000602082015250565b7f6d6967726174653a206e6f206d69677261746f72000000000000000000000000600082015250565b61313081612d32565b811461313b57600080fd5b50565b61314781612d44565b811461315257600080fd5b50565b61315e81612d50565b811461316957600080fd5b50565b61317581612d62565b811461318057600080fd5b50565b61318c81612d94565b811461319757600080fd5b5056fea2646970667358221220c027a6332855e0a5b425fedb226115a2fec20ae2108743cdde3ceb1eb774f70664736f6c63430008040033",
  "linkReferences": {},
  "deployedLinkReferences": {}
}